:040000000BEF00F012
:100008005182FACF01F0FBCF02F0E8ED0EF031EFAC
:0200180010F0E6
:100800000000000000000000003C4242427E4242E4
:10081000427C42427C4242427C3E4040404040401A
:100820003E7C4242424242427C7E404078404040D0
:100830007E7E4040784040404020202020382424C4
:10084000383C4240404E42423C2424FF2424FF24B2
:10085000240033C024F034C025F035C026F0000E4B
:10086000276EDC0E286E410E296E56EC0CF0800EC1
:10087000251823E13F0E26182410D8A41ED0090EF7
:100880000F6E080E106E36C011F037C012F010EC6B
:1008900010F0010E0F6E080E106E38C011F039C046
:1008A00012F0EFEC0FF036C014F037C015F038C07E
:1008B00016F039C017F082EC0FF033C024F034C0CA
:1008C00025F035C026F01F0E276EE90E286E410E6A
:1008D000296E56EC0CF0800E251823E13F0E2618E9
:1008E0002410D8A41ED0090E0F6E080E106E36C04C
:1008F00011F037C012F010EC10F0490E0F6E080E18
:10090000106E38C011F039C012F0EFEC0FF036C0A5
:1009100014F037C015F038C016F039C017F082EC6B
:100920000FF033C024F034C025F035C026F0F60EA9
:10093000276EF60E286E410E296E56EC0CF0800ED6
:10094000251823E13F0E26182410D8A41ED0110E1E
:100950000F6E080E106E36C011F037C012F010EC9A
:1009600010F0010E0F6E080E106E38C011F039C075
:1009700012F0EFEC0FF036C014F037C015F038C0AD
:1009800016F039C017F082EC0FF033C024F034C0F9
:1009900025F035C026F0CD0E276E820E286E410E52
:1009A000296E56EC0CF0800E251823E13F0E261818
:1009B0002410D8A41ED0190E0F6E080E106E36C06B
:1009C00011F037C012F010EC10F0010E0F6E080E8F
:1009D000106E38C011F039C012F0EFEC0FF036C0D5
:1009E00014F037C015F038C016F039C017F082EC9B
:1009F0000FF033C024F034C025F035C026F08F0E40
:100A0000276E8A0E286E410E296E56EC0CF0800E71
:100A1000251823E13F0E26182410D8A41ED0190E45
:100A20000F6E080E106E36C011F037C012F010ECC9
:100A300010F0490E0F6E080E106E38C011F039C05C
:100A400012F0EFEC0FF036C014F037C015F038C0DC
:100A500016F039C017F082EC0FF033C024F034C028
:100A600025F035C026F0CD0E276E920E286E410E71
:100A7000296E56EC0CF0800E251823E13F0E261847
:100A80002410D8A41ED0210E0F6E080E106E36C092
:100A900011F037C012F010EC10F0010E0F6E080EBE
:100AA000106E38C011F039C012F0EFEC0FF036C004
:100AB00014F037C015F038C016F039C017F082ECCA
:100AC0000FF033C024F034C025F035C026F09A0E64
:100AD000276E9B0E286E410E296E56EC0CF0800E90
:100AE000251823E13F0E26182410D8A41ED0210E6D
:100AF0000F6E080E106E36C011F037C012F010ECF9
:100B000010F0490E0F6E080E106E38C011F039C08B
:100B100012F0EFEC0FF036C014F037C015F038C00B
:100B200016F039C017F082EC0FF033C024F034C057
:100B300025F035C026F0CD0E276EA40E286E410E8E
:100B4000296E56EC0CF0800E251823E13F0E261876
:100B50002410D8A41ED0290E0F6E080E106E36C0B9
:100B600011F037C012F010EC10F0010E0F6E080EED
:100B7000106E38C011F039C012F0EFEC0FF036C033
:100B800014F037C015F038C016F039C017F082ECF9
:100B90000FF033C024F034C025F035C026F0A40E89
:100BA000276EAE0E286E410E296E56EC0CF0800EAC
:100BB000251823E13F0E26182410D8A41ED0310E8C
:100BC0000F6E080E106E36C011F037C012F010EC28
:100BD00010F0010E0F6E080E106E38C011F039C003
:100BE00012F0EFEC0FF036C014F037C015F038C03B
:100BF00016F039C017F082EC0FF033C024F034C087
:100C000025F035C026F0F60E276EB80E286E410E80
:100C1000296E56EC0CF0800E251823E13F0E2618A5
:100C20002410D8A41ED0310E0F6E080E106E36C0E0
:100C300011F037C012F010EC10F0490E0F6E080ED4
:100C4000106E38C011F039C012F0EFEC0FF036C062
:100C500014F037C015F038C016F039C017F082EC28
:100C60000FF033C024F034C025F035C026F0000E5C
:100C7000276EC40E286E410E296E56EC0CF0800EC5
:100C8000251823E13F0E26182410D8A41ED0410EAB
:100C90000F6E080E106E36C011F037C012F010EC57
:100CA00010F0010E0F6E080E106E38C011F039C032
:100CB00012F0EFEC0FF036C014F037C015F038C06A
:100CC00016F039C017F082EC0FF033C024F034C0B6
:100CD00025F035C026F0AE0E276ECF0E286E410EE1
:100CE000296E56EC0CF0800E251824E13F0E2618D4
:100CF0002410D8A41200410E0F6E080E106E36C0DC
:100D000011F037C012F010EC10F0490E0F6E080E03
:100D1000106E38C011F039C012F0EFEC0FF036C091
:100D200014F037C015F038C016F039C017F082EC57
:100D30000FF01200120048504A1804E149504B18B5
:100D4000D8B412004AC00FF04BC010F0000E126E63
:100D5000030E116E4EEC10F0000E0F24D96E010E32
:100D60001020DA6EDECF1BF0DECF1CF0DDCF1DF0E1
:100D700048C00FF049C010F0000E126E030E116E45
:100D80004EEC10F0000E0F24D96E010E1020DA6E1A
:100D9000DECF18F0DECF19F0DDCF1AF063EC0AF0E9
:100DA00018C024F019C025F01AC026F0000E276ED6
:100DB000000E286E400E296E56EC0CF024C066F032
:100DC00025C067F026C068F04AC00FF04BC010F095
:100DD000000E126E030E116E4EEC10F0000E0F247A
:100DE000D96E010E1020DA6EDECF15F0DECF16F0D0
:100DF000DDCF17F061EC10F015C018F016C019F037
:100E000017C01AF042C01BF043C01CF044C01DF0D4
:100E100063EC0AF018C060F019C061F01AC062F00B
:100E200042C015F043C016F044C017F061EC10F05A
:100E300015C018F016C019F017C01AF0000E126E87
:100E4000030E116E48C00FF049C010F04EEC10F0C8
:100E5000000E0F24D96E010E1020DA6EDECF1BF0CB
:100E6000DECF1CF0DDCF1DF063EC0AF018C063F09C
:100E700019C064F01AC065F060C015F061C016F0CA
:100E800062C017F063C018F064C019F065C01AF0B2
:100E90005FEC0EF0D8B0DAD042C015F043C016F0C7
:100EA00044C017F061EC10F015C018F016C019F02E
:100EB00017C01AF066C01BF067C01CF068C01DF0B8
:100EC00063EC0AF018C060F019C061F01AC062F05B
:100ED0004AC00FF04BC010F0000E126E030E116EE0
:100EE0004EEC10F0000E0F24D96E010E1020DA6EB9
:100EF000DECF15F0DECF16F0DDCF17F061EC10F08D
:100F000015C018F016C019F017C01AF066C01BF013
:100F100067C01CF068C01DF063EC0AF018C063F0F5
:100F200019C064F01AC065F060C027F061C028F0F5
:100F300062C029F063C024F064C025F065C026F0CB
:100F400056EC0CF024C033F025C034F026C035F048
:100F5000000E366EC80E376E420E386EDCEC0BF0AB
:100F600033C069F034C06AF035C06BF04AC00FF08E
:100F70004BC010F0000E126E030E116E4EEC10F00E
:100F8000000E0F24D96E010E1020DA6EDECF45F070
:100F9000DECF46F0DDCF47F069C015F06AC016F02D
:100FA0006BC017F0000E186E400E196E400E1A6ED0
:100FB0005FEC0EF0D8A0120069C015F06AC016F000
:100FC0006BC017F0000E186E700E196E410E1A6E7F
:100FD0005FEC0EF0D8A0120069C015F06AC016F0E0
:100FE0006BC017F0000E186E480E196E420E1A6E86
:100FF0005FEC0EF0D8A0120069C015F06AC016F0C0
:101000006BC017F0000E186EC60E196E420E1A6EE7
:101010005FEC0EF0D8A01200C80E00016A1907E1BB
:10102000420E00016B1900016911D8B41200000EC4
:10103000156EC80E166E420E176E69C018F06AC0A3
:1010400019F06BC01AF05FEC0EF0120066C015F0DC
:1010500067C016F068C017F061EC10F015C018F00A
:1010600016C019F017C01AF042C01BF043C01CF0A4
:1010700044C01DF063EC0AF018C060F019C061F0C4
:101080001AC062F066C015F067C016F068C017F0AD
:1010900061EC10F015C018F016C019F017C01AF066
:1010A000000E126E030E116E48C00FF049C010F012
:1010B0004EEC10F0000E0F24D96E010E1020DA6EE7
:1010C000DECF1BF0DECF1CF0DDCF1DF063EC0AF0AD
:1010D00018C063F019C064F01AC065F060C027F052
:1010E00061C028F062C029F063C024F064C025F01C
:1010F00065C026F056EC0CF024C033F025C034F067
:1011000026C035F0000E366EC80E376E420E386EB1
:10111000DCEC0BF033C069F034C06AF035C06BF022
:1011200048C00FF049C010F0000E126E030E116E91
:101130004EEC10F0000E0F24D96E010E1020DA6E66
:10114000DECF45F0DECF46F0DDCF47F069C015F0C9
:101150006AC016F06BC017F0000E186E400E196EC4
:10116000400E1A6E5FEC0EF0D8A0120069C015F0A8
:101170006AC016F06BC017F0000E186E700E196E74
:10118000410E1A6E5FEC0EF0D8A0120069C015F087
:101190006AC016F06BC017F0000E186E480E196E7C
:1011A000420E1A6E5FEC0EF0D8A0120069C015F066
:1011B0006AC016F06BC017F0000E186EC60E196EDE
:1011C000420E1A6E5FEC0EF0D8A01200C80E00019D
:1011D0006A1907E1420E00016B1900016911D8B4C8
:1011E0001200000E156EC80E166E420E176E69C004
:1011F00018F06AC019F06BC01AF05FEC0EF0120024
:10120000000E2D6E000E2C6E000E2F6E000E2E6E38
:1012100055D1C3C115F0C4C116F0C5C117F01EC029
:1012200018F01FC019F020C01AF05FEC0EF0D8B013
:101230001FD0490E0F6E080E106E21C011F022C093
:1012400012F010EC10F0490E0F6E080E106E23C055
:1012500011F024C012F0EFEC0FF021C014F022C006
:1012600015F023C016F024C017F082EC0FF0120026
:101270001EC015F01FC016F020C017F000C118F0F6
:1012800001C119F002C11AF05FEC0EF0D8B01FD006
:10129000390E0F6E080E106E21C011F022C012F030
:1012A00010EC10F0390E0F6E080E106E23C011F006
:1012B00024C012F0EFEC0FF021C014F022C015F0A2
:1012C00023C016F024C017F082EC0FF01200010EBC
:1012D0002E24296E000E2F202A6E2ABE06D02A50F8
:1012E0006DE1420E295CD8B069D02EC00FF02FC03E
:1012F00010F0000E126E030E116E4EEC10F0000E88
:101300000F24D96E010E1020DA6E1E50DE180DE18A
:101310001F50DE180AE12050DE18D8A406D076D07F
:10132000000E2D6E010E2C6EC7D02EC00FF02FC0F8
:1013300010F0000E126E030E116E4EEC10F0000E47
:101340000F24D96E010E1020DA6EDECF15F0DECF3D
:1013500016F0DDCF17F01EC018F01FC019F020C026
:101360001AF05FEC0EF0D8B0A7D01EC015F01FC069
:1013700016F020C017F0010E2E240F6E000E2F2045
:10138000106E000E126E030E116E4EEC10F0000E79
:101390000F24D96E010E1020DA6EDECF18F0DECFEA
:1013A00019F0DDCF1AF05FEC0EF0D8B085D0010E49
:1013B0002E24256E000E2F20266E2CD0010E2E24FA
:1013C000296E000E2F202A6E2ABE78D02A5004E102
:1013D000420E295CD8A072D02EC00FF02FC010F0A2
:1013E000000E126E030E116E4EEC10F0000E0F2464
:1013F000D96E010E1020DA6E1E50DE1810E11F505B
:10140000DE180DE12050DE18D8A409D02EC025F03A
:101410002FC026F02EC027F02FC028F081D7FF0E56
:101420002E240F6EFF0E2F20106E000E126E030E74
:10143000116E4EEC10F0000E0F24D96E010E10202C
:10144000DA6EDECF15F0DECF16F0DDCF17F01EC05E
:1014500018F01FC019F020C01AF05FEC0EF0D8B0E1
:101460002BD01EC015F01FC016F020C017F02EC0E4
:101470000FF02FC010F0000E126E030E116E4EEC26
:1014800010F0000E0F24D96E010E1020DA6EDECFA0
:1014900018F0DECF19F0DDCF1AF05FEC0EF0D8B007
:1014A0000BD02EC025F02FC026F0FF0E2E24276E65
:1014B000FF0E2F20286E34D72E4A2F2A2C042D10F1
:1014C000D8B41200A6D61AC01EF01F6A206A1934BA
:1014D0001E3601E31F801E50236E1DC01EF01F6AC2
:1014E000206A1C341E3601E31F801E50226E2350DA
:1014F000D8B40BD02250235CD8B00ED023500008B3
:1015000022241E6E180E1E6407D01BC018F01CC0CB
:1015100019F01DC01AF012002250D8B40BD023507D
:10152000225CD8B00ED02250000823241E6E180E64
:101530001E6407D018C018F019C019F01AC01AF0AC
:101540001200060E216E1ABE218E1DBE218C198E30
:10155000FF0E1816FF0E1916000E1A161C8EFF0E1F
:101560001B16FF0E1C16000E1D162250235CD8B051
:101570001BD0D8901B361C361D362206235022184D
:10158000D8B40DD0210621C01EF0070E1E16D8B407
:1015900006D0EFD7D8901A3219321832232A2250A7
:1015A0002318D8B41FD0F6D72350225CD8B01AD055
:1015B000D890183619361A36230623502218D8B474
:1015C0000DD0210621C01EF0070E1E16D8B406D07D
:1015D000EFD7D8901D321C321B32222A22502318FA
:1015E000D8A4F7D721AE0CD0FF0E181AFF0E191A87
:1015F000FF0E1A1A010E1826000E1922000E1A22CA
:1016000021AC0CD0FF0E1B1AFF0E1C1AFF0E1D1A68
:10161000010E1B26000E1C22000E1D22000E216E44
:1016200018501B2619501C221A501D221DAE0ED018
:10163000FF0E1B1AFF0E1C1AFF0E1D1A010E1B2691
:10164000000E1C22000E1D22010E216E1BC00FF089
:101650001CC010F01DC011F023C012F021C013F007
:1016600008EC0EF00FC018F010C019F011C01AF0FD
:1016700012008092000E186E000E176E07D0000E3A
:10168000126E090E81EC10F0174A182A1450175CDC
:101690001850800A166E1550800A1658D8A0EFD739
:1016A000808200F000D000D08092000E1A6E000EF2
:1016B000196E07D00F0E126E0A0E81EC10F0194A47
:1016C0001A2A1450195C1A50800A166E1550800A96
:1016D0001658D8A0EFD7808200F000D000D08092BA
:1016E000000E1C6E000E1B6E07D0070E126E0B0E46
:1016F00081EC10F01B4A1C2A14501B5C1C50800A01
:10170000166E1550800A1658D8A0EFD7808200F0C8
:1017100000D000D08092000E1E6E000E1D6E07D00D
:10172000010E126E0C0E81EC10F01D4A1E2A145090
:101730001D5C1E50800A166E1550800A1658D8A0DF
:10174000EFD7808200F000D000D08092000E206E93
:10175000000E1F6E07D0010E126E0F0E81EC10F0FE
:101760001F4A202A14501F5C2050800A166E155004
:10177000800A1658D8A0EFD7808200F000D000D0A1
:101780008092000E226E000E216E07D0000E126EA7
:101790000F0E81EC10F0214A222A1450215C2250B5
:1017A000800A166E1550800A1658D8A0EFD780828E
:1017B00000F000D000D0120035C039F03A6A3B6A20
:1017C0003434393601E33A8039503C6E3C50D8A469
:1017D00007D0000E336E000E346E000E356E120010
:1017E00038C039F03A6A3B6A3734393601E33A8017
:1017F0003950416E4150D8A407D0000E336E000E10
:10180000346E000E356E120041507B0F3C2635C001
:1018100041F03850411A800E4116348E378EFF0E3B
:101820003616FF0E3716000E3816000E3D6E000EEF
:101830003E6E000E3F6E070E406E33A006D036504F
:101840003D2637503E2238503F22D8903532343230
:101850003332D890363637363836402EEED7090E2A
:10186000406E33A006D036503D2637503E223850C9
:101870003F22D890353234323332D8903F323E3224
:101880003D32402EEED73DC00FF03EC010F03FC0BD
:1018900011F03CC012F041C013F008EC0EF00FC084
:1018A00033F010C034F011C035F0120026C02AF019
:1018B0002B6A2C6A25342A3601E32B802A50316E9C
:1018C0003150D8A407D0000E246E000E256E000EF5
:1018D000266E120029C02AF02B6A2C6A28342A3678
:1018E00001E32B802A50326E3250D8A407D0000E6C
:1018F000246E000E256E000E266E1200000E2E6E57
:10190000000E2F6E000E306E3250890F315E26C0F1
:1019100032F02950321A800E3216258EFF0E241610
:10192000FF0E2516000E2616288EFF0E2716FF0E18
:101930002816000E2916180E2D6ED8902E362F362A
:1019400030362750245C2850255829502658D8A0D6
:1019500007D02750245E2850255A2950265A2E8019
:10196000D8902436253626362D2EE7D72EC00FF0F8
:101970002FC010F030C011F031C012F032C013F09F
:1019800008EC0EF00FC024F010C025F011C026F0B6
:101990001200820E4C6EDE0EE82EFED74C2EFCD7C7
:1019A00073EC10F0000E00017D6F020E7C6F000ED4
:1019B0000001826F000E816F000E0001846F000E27
:1019C000836F7CC014F07DC015F039EC0BF0000E75
:1019D0000001856F000E0001866F000E0001876F09
:1019E000F28E85C031F086C032F087C033F0050E2C
:1019F00039EC0DF085C01EF086C01FF087C020F0C6
:101A00006C0E216E000E226E740E236E000E246E7C
:101A100081C025F082C026F083C027F084C028F062
:101A200000EC09F085C042F086C043F087C044F066
:101A30007EC045F07FC046F080C047F081C048F0CE
:101A400082C049F083C04AF084C04BF09BEC06F0A2
:101A50007EC033F07FC034F080C035F06C0E366E3F
:101A6000000E376E740E386E000E396E29EC04F0DD
:101A7000B8D7416E000E406E80B8FED780A8FED762
:101A8000AAEC0FF00FC038F010C039F011C03AF0D6
:101A900012C03BF005D080B8FED780A8FED7402A00
:101AA0004150405CD8A0F7D7AAEC0FF00FC03CF033
:101AB00010C03DF011C03EF012C03FF038C034F00D
:101AC00039C035F03AC036F03BC037F0341E351E11
:101AD000361E371E342A000E3522362237223C505D
:101AE00034241F6E3D503520206E3E503620216E2E
:101AF0003F503720226E41500F6E106A116A126AF1
:101B0000400E136E420E146E0F0E156E000E166E02
:101B100057EC0FF00FC01BF010C01CF011C01DF0EF
:101B200012C01EF0A7EC0EF01BC028F01CC029F05C
:101B30001DC02AF01EC02BF029EC0FF028C031F098
:101B400029C032F02AC033F01200CD82418F8A4181
:101B5000CD92419A9B41CDA441A4AE41F6B841003B
:101B6000C441AECF4100DC411FE941F6F641CD0250
:101B7000428F0A42CD12429A1B42CD2442A42E42E9
:101B8000F63842004442AE4F42005C421F6942F6C2
:101B90007642CD82428F8A42CD92429A9B42CDA418
:101BA00042A4AE42F6B84200C442AECF4200DC428C
:101BB0001FE942F6F642CD02438F0A43CD12439A03
:101BC0001B43CD2443A42E43F63843004443AE4F79
:101BD00043005C431F6943F67643CD82438F8A43BB
:101BE000CD92438F9B43CDA443A4AE43F6B84300AC
:101BF000C443AECF4300DC431FE943F6F643CD02B6
:101C0000448F0A44CD12449A1B4400000000000097
:101C10001250D8B405D00F5010101110D8A40CD009
:101C2000000E0F6E000E106E000E116E1200122AC2
:101C3000D890113210320F32000E0F14146E000EB5
:101C40001014156EFE0E1114166E14501510161089
:101C5000D8B40CD0ECD7122A010E0F26000E102299
:101C6000000E1122D890113210320F32000E0F14D4
:101C7000146E000E1014156EFF0E1114166E145013
:101C800015101610D8B406D0E6D71206D8900F3625
:101C90001036113610BE03D0020E1260F6D712A015
:101CA000109ED8901232125011121350D8A4118ED7
:101CB0000FC00FF010C010F011C011F0120017AEDD
:101CC00016D015C01BF016C01CF017C01DF01B1E4F
:101CD0001C1E1D1E1B2A000E1C221D22000E1B2472
:101CE000156E000E1C20166E800E1D20176E1AAE8B
:101CF00016D018C01BF019C01CF01AC01DF01B1E16
:101D00001C1E1D1E1B2A000E1C221D22000E1B2441
:101D1000186E000E1C20196E800E1D201A6E000E0B
:101D2000151A000E161A800E171A000E181A000E39
:101D3000191A800E1A1A1850155C195016581A5094
:101D40001758D8B002D0D8901200D8801200000ED8
:101D5000236E000E246E000E256E000E266E1F50A0
:101D6000201021102210D8B42AD0010E276E06D0E0
:101D7000D8901F36203621362236272A22AEF8D7B1
:101D8000D89023362436253626361F501B5C20502B
:101D90001C5821501D5822501E58D8A009D01F5041
:101DA0001B5E20501C5A21501D5A22501E5A23805F
:101DB000D8902232213220321F32272EE1D723C081
:101DC0001BF024C01CF025C01DF026C01EF0120020
:101DD0000600E9CF03F0EACF04F0E1CF05F0E2CF4F
:101DE00006F0D9CF07F0DACF08F0F3CF09F0F4CF3F
:101DF0000AF0F6CF0BF0F7CF0CF0F8CF0DF0F5CFDF
:101E00000EF0F2BAF2A407D0F294010E4D26000EA5
:101E10004E224F2250220EC0F5FF0DC0F8FF0CC01D
:101E2000F7FF0BC0F6FF0AC0F4FF09C0F3FF08C0BC
:101E3000DAFF07C0D9FF06C0E2FF05C0E1FF04C01A
:101E4000EAFF03C0E9FF02C0FBFF01C0FAFF5192A5
:101E500011008E0E306E06D0D8902B322A322932E5
:101E60002832302A000E28142C6E000E29142D6EF4
:101E7000000E2A142E6EFF0E2B142F6E2C502D10D8
:101E80002E102F10D8A4E8D728C00FF029C010F0CA
:101E90002AC011F030C012F0000E136E08EC0EF0E4
:101EA0000FC028F010C029F011C02AF01200000E57
:101EB000176E000E186E000E196E000E1A6E0FA02F
:101EC00008D01350172614501822155019221650F6
:101ED0001A22D8901336143615361636D890123288
:101EE000113210320F320F50101011101210D8A4EE
:101EF000E6D717C00FF018C010F019C011F01AC0C3
:101F000012F01200000E186E070E186401D01200B5
:101F100080921850010DF3501624D96EF4501720FA
:101F2000DA6EDF50126E182881EC10F01850010D97
:101F3000F3501424D96EF4501520DA6EDF50126E6F
:101F4000182881EC10F0808200F000D000D0809240
:101F5000182ADAD74DC013F04EC014F04FC015F058
:101F600050C016F014C016F013C015F0146A136AAE
:101F7000D6501310176ED7501410186E000E15108F
:101F8000196E000E16101A6E17C00FF018C010F060
:101F900019C011F01AC012F012000F6E000E116E6F
:101FA000000E106E11BE06D0115017E1080E105C25
:101FB000D8B013D080940FAE02D0808001D0809032
:101FC000808400F000D000D0104A112AD8900F363B
:101FD00011BEF0D7115001E1E9D780941200000E34
:101FE000156E070E156401D012001550010D0FC0BB
:101FF00013F010C014F0F3501326F450142213C041
:10200000F6FF14C0F7FF1550010DF3501124D96EDF
:10201000F4501220DA6E0800F5CFDFFF152AE1D761
:10202000000E156E070E156401D012001550010D3B
:102030000FC013F010C014F0F3501326F450142204
:1020400013C0F6FF14C0F7FF1550010DF350112413
:10205000D96EF4501220DA6E0800F5CFDFFF152A92
:10206000E1D7506A4F6A4E6A4D6A4A0EF66E1B0EF1
:10207000F76E000EF86E01EE00F010EEC6F00900EB
:10208000F5CFEEFFE550E150FAE151905192000E8C
:10209000F86E080EF76E0001C9EF0CF00F50110238
:1020A000F3CF13F0F4CF14F00F501202F3501426B4
:1020B00010501102F350142613C00FF014C010F08A
:1020C0001200155016101710D8B406D0000E151AAD
:1020D000000E161A800E171A15C015F016C016F04D
:1020E00017C017F012006D966F860F0EC16E100E9E
:1020F000926E000E936E000E946E880ED56EF28A6C
:102100001200136E1350CDEC0FF01250CDEC0FF007
:022110001200BB
:020000040020DA
:08000000FFFFFFFFFFFFFFFF00
:020000040030CA
:0E00000000001F1EFF8385FF0FC00FE00F40A2
:00000001FF
